{
  "_format": "hh-sol-artifact-1",
  "contractName": "Test",
  "sourceName": "contracts/Test.sol",
  "abi": [
    {
      "inputs": [
        {
          "internalType": "address",
          "name": "initialOracleAddress",
          "type": "address"
        }
      ],
      "stateMutability": "nonpayable",
      "type": "constructor"
    },
    {
      "anonymous": false,
      "inputs": [
        {
          "indexed": true,
          "internalType": "address",
          "name": "newOracleAddress",
          "type": "address"
        }
      ],
      "name": "OracleAddressUpdated",
      "type": "event"
    },
    {
      "inputs": [
        {
          "internalType": "string",
          "name": "name",
          "type": "string"
        },
        {
          "internalType": "string",
          "name": "message",
          "type": "string"
        }
      ],
      "name": "callFunction",
      "outputs": [
        {
          "internalType": "uint256",
          "name": "i",
          "type": "uint256"
        }
      ],
      "stateMutability": "nonpayable",
      "type": "function"
    },
    {
      "inputs": [
        {
          "internalType": "string",
          "name": "model",
          "type": "string"
        },
        {
          "internalType": "string",
          "name": "message",
          "type": "string"
        }
      ],
      "name": "callGroqLLM",
      "outputs": [
        {
          "internalType": "uint256",
          "name": "i",
          "type": "uint256"
        }
      ],
      "stateMutability": "nonpayable",
      "type": "function"
    },
    {
      "inputs": [
        {
          "internalType": "string",
          "name": "model",
          "type": "string"
        },
        {
          "internalType": "string",
          "name": "message",
          "type": "string"
        }
      ],
      "name": "callLLM",
      "outputs": [
        {
          "internalType": "uint256",
          "name": "i",
          "type": "uint256"
        }
      ],
      "stateMutability": "nonpayable",
      "type": "function"
    },
    {
      "inputs": [
        {
          "internalType": "string",
          "name": "model",
          "type": "string"
        },
        {
          "internalType": "string",
          "name": "message",
          "type": "string"
        }
      ],
      "name": "callOpenAiLLM",
      "outputs": [
        {
          "internalType": "uint256",
          "name": "i",
          "type": "uint256"
        }
      ],
      "stateMutability": "nonpayable",
      "type": "function"
    },
    {
      "inputs": [
        {
          "internalType": "string",
          "name": "model",
          "type": "string"
        },
        {
          "internalType": "string",
          "name": "message",
          "type": "string"
        },
        {
          "internalType": "string",
          "name": "imageUrl",
          "type": "string"
        }
      ],
      "name": "callOpenAiVisionLLM",
      "outputs": [
        {
          "internalType": "uint256",
          "name": "i",
          "type": "uint256"
        }
      ],
      "stateMutability": "nonpayable",
      "type": "function"
    },
    {
      "inputs": [
        {
          "internalType": "uint256",
          "name": "",
          "type": "uint256"
        }
      ],
      "name": "getMessageHistory",
      "outputs": [
        {
          "components": [
            {
              "internalType": "string",
              "name": "role",
              "type": "string"
            },
            {
              "components": [
                {
                  "internalType": "string",
                  "name": "contentType",
                  "type": "string"
                },
                {
                  "internalType": "string",
                  "name": "value",
                  "type": "string"
                }
              ],
              "internalType": "struct IOracle.Content[]",
              "name": "content",
              "type": "tuple[]"
            }
          ],
          "internalType": "struct IOracle.Message[]",
          "name": "",
          "type": "tuple[]"
        }
      ],
      "stateMutability": "view",
      "type": "function"
    },
    {
      "inputs": [],
      "name": "lastError",
      "outputs": [
        {
          "internalType": "string",
          "name": "",
          "type": "string"
        }
      ],
      "stateMutability": "view",
      "type": "function"
    },
    {
      "inputs": [],
      "name": "lastResponse",
      "outputs": [
        {
          "internalType": "string",
          "name": "",
          "type": "string"
        }
      ],
      "stateMutability": "view",
      "type": "function"
    },
    {
      "inputs": [
        {
          "internalType": "uint256",
          "name": "",
          "type": "uint256"
        },
        {
          "internalType": "string",
          "name": "response",
          "type": "string"
        },
        {
          "internalType": "string",
          "name": "errorMessage",
          "type": "string"
        }
      ],
      "name": "onOracleFunctionResponse",
      "outputs": [],
      "stateMutability": "nonpayable",
      "type": "function"
    },
    {
      "inputs": [
        {
          "internalType": "uint256",
          "name": "",
          "type": "uint256"
        },
        {
          "components": [
            {
              "internalType": "string",
              "name": "id",
              "type": "string"
            },
            {
              "internalType": "string",
              "name": "content",
              "type": "string"
            },
            {
              "internalType": "uint64",
              "name": "created",
              "type": "uint64"
            },
            {
              "internalType": "string",
              "name": "model",
              "type": "string"
            },
            {
              "internalType": "string",
              "name": "systemFingerprint",
              "type": "string"
            },
            {
              "internalType": "string",
              "name": "object",
              "type": "string"
            },
            {
              "internalType": "uint32",
              "name": "completionTokens",
              "type": "uint32"
            },
            {
              "internalType": "uint32",
              "name": "promptTokens",
              "type": "uint32"
            },
            {
              "internalType": "uint32",
              "name": "totalTokens",
              "type": "uint32"
            }
          ],
          "internalType": "struct IOracle.GroqResponse",
          "name": "response",
          "type": "tuple"
        },
        {
          "internalType": "string",
          "name": "errorMessage",
          "type": "string"
        }
      ],
      "name": "onOracleGroqLlmResponse",
      "outputs": [],
      "stateMutability": "nonpayable",
      "type": "function"
    },
    {
      "inputs": [
        {
          "internalType": "uint256",
          "name": "",
          "type": "uint256"
        },
        {
          "internalType": "string[]",
          "name": "documents",
          "type": "string[]"
        },
        {
          "internalType": "string",
          "name": "errorMessage",
          "type": "string"
        }
      ],
      "name": "onOracleKnowledgeBaseQueryResponse",
      "outputs": [],
      "stateMutability": "nonpayable",
      "type": "function"
    },
    {
      "inputs": [
        {
          "internalType": "uint256",
          "name": "",
          "type": "uint256"
        },
        {
          "components": [
            {
              "internalType": "string",
              "name": "id",
              "type": "string"
            },
            {
              "internalType": "string",
              "name": "content",
              "type": "string"
            },
            {
              "internalType": "string",
              "name": "functionName",
              "type": "string"
            },
            {
              "internalType": "string",
              "name": "functionArguments",
              "type": "string"
            },
            {
              "internalType": "uint64",
              "name": "created",
              "type": "uint64"
            },
            {
              "internalType": "string",
              "name": "model",
              "type": "string"
            },
            {
              "internalType": "string",
              "name": "systemFingerprint",
              "type": "string"
            },
            {
              "internalType": "string",
              "name": "object",
              "type": "string"
            },
            {
              "internalType": "uint32",
              "name": "completionTokens",
              "type": "uint32"
            },
            {
              "internalType": "uint32",
              "name": "promptTokens",
              "type": "uint32"
            },
            {
              "internalType": "uint32",
              "name": "totalTokens",
              "type": "uint32"
            }
          ],
          "internalType": "struct IOracle.LlmResponse",
          "name": "response",
          "type": "tuple"
        },
        {
          "internalType": "string",
          "name": "errorMessage",
          "type": "string"
        }
      ],
      "name": "onOracleLlmResponse",
      "outputs": [],
      "stateMutability": "nonpayable",
      "type": "function"
    },
    {
      "inputs": [
        {
          "internalType": "uint256",
          "name": "",
          "type": "uint256"
        },
        {
          "components": [
            {
              "internalType": "string",
              "name": "id",
              "type": "string"
            },
            {
              "internalType": "string",
              "name": "content",
              "type": "string"
            },
            {
              "internalType": "string",
              "name": "functionName",
              "type": "string"
            },
            {
              "internalType": "string",
              "name": "functionArguments",
              "type": "string"
            },
            {
              "internalType": "uint64",
              "name": "created",
              "type": "uint64"
            },
            {
              "internalType": "string",
              "name": "model",
              "type": "string"
            },
            {
              "internalType": "string",
              "name": "systemFingerprint",
              "type": "string"
            },
            {
              "internalType": "string",
              "name": "object",
              "type": "string"
            },
            {
              "internalType": "uint32",
              "name": "completionTokens",
              "type": "uint32"
            },
            {
              "internalType": "uint32",
              "name": "promptTokens",
              "type": "uint32"
            },
            {
              "internalType": "uint32",
              "name": "totalTokens",
              "type": "uint32"
            }
          ],
          "internalType": "struct IOracle.OpenAiResponse",
          "name": "response",
          "type": "tuple"
        },
        {
          "internalType": "string",
          "name": "errorMessage",
          "type": "string"
        }
      ],
      "name": "onOracleOpenAiLlmResponse",
      "outputs": [],
      "stateMutability": "nonpayable",
      "type": "function"
    },
    {
      "inputs": [],
      "name": "oracleAddress",
      "outputs": [
        {
          "internalType": "address",
          "name": "",
          "type": "address"
        }
      ],
      "stateMutability": "view",
      "type": "function"
    },
    {
      "inputs": [
        {
          "internalType": "string",
          "name": "cid",
          "type": "string"
        },
        {
          "internalType": "string",
          "name": "query",
          "type": "string"
        }
      ],
      "name": "queryKnowledgeBase",
      "outputs": [
        {
          "internalType": "uint256",
          "name": "i",
          "type": "uint256"
        }
      ],
      "stateMutability": "nonpayable",
      "type": "function"
    },
    {
      "inputs": [
        {
          "internalType": "address",
          "name": "newOracleAddress",
          "type": "address"
        }
      ],
      "name": "setOracleAddress",
      "outputs": [],
      "stateMutability": "nonpayable",
      "type": "function"
    }
  ],
  "bytecode": "0x60803461007c57601f62002eb638819003918201601f19168301916001600160401b038311848410176100815780849260209460405283398101031261007c57516001600160a01b0381169081900361007c5760018060a01b0319338160005416176000556001541617600155604051612e1e9081620000988239f35b600080fd5b634e487b7160e01b600052604160045260246000fdfe6080604052600436101561001257600080fd5b60003560e01c806302000554146122b85780630d7aebef1461206e5780632843d13514611d6357806329f0de3f14611ccf57806346dcd7ae1461194c5780634c69c00f146118a75780634cecd88e1461171157806354a470fc1461148d57806355203990146113bb57806362747e42146112e75780637397454d14611124578063a89ae4ba146110fb578063b922b3941461092e578063cc06013714610647578063cfcf5d25146102ad5763e5fcc7bf146100cc57600080fd5b346102a8576100da366125eb565b9091506001916100f460018060a01b038454163314612d05565b6020809101519182516001600160401b03938482116102175781906101238261011e60045461249e565b61283f565b8490601f83116001146102385760009261022d575b5050600019600383901b1c191690851b176004555b80519283116102175761016a8361016560055461249e565b612883565b81601f84116001146101a7575092829391839260009461019c575b50501b916000199060031b1c191617600555600080f35b015192503880610185565b919083601f1981166005600052600080516020612d49833981519152946000905b888383106101fd57505050106101e4575b505050811b01600555005b015160001960f88460031b161c191690553880806101d9565b8587015188559096019594850194879350908101906101c8565b634e487b7160e01b600052604160045260246000fd5b015190503880610138565b90879350601f198316916004600052600080516020612dc98339815191529260005b888282106102925750508411610279575b505050811b0160045561014d565b015160001960f88460031b161c1916905538808061026b565b8385015186558b9790950194938401930161025a565b600080fd5b346102a8576102bb36612441565b906006549060018083018084116105b8576006556102d761291a565b93604051946102e58661235c565b6102ed612956565b90818752602080970190815281516001600160401b03811161021757806002936103208261031b875461249e565b6127fb565b8990601f83116001146105d9576000926105ce575b5050600019600383901b1c191690851b1782555b5190815191600160401b831161021757879060035484600355808510610547575b5090809594939291016003600052600080516020612d898339815191526000915b84831061052057878a6000826104cf8d8c6103c98d604051906103ad8261235c565b6103b5612b45565b8252868201526103c3612b65565b90612b9d565b6103dc6103d760045461249e565b612777565b846004556103f36103ee60055461249e565b6127b9565b6005859055546040516001600160a01b039091169161041182612377565b8152601584820152604051610425816123af565b85815260408201526103e8606082015260156080820152610444612bc2565b60a08201528460c082015260405161045b816123af565b85815260e0820152600a610100820152606561012082015260405161047f816123af565b858152610140820152604051610494816123af565b8581526101608201526040516104a9816123af565b85815261018082015260405194858094819363cbbfd0b760e01b83528960048401612bed565b03925af19081156105145783916104eb575b5050604051908152f35b813d831161050d575b6104fe81836123ca565b810103126102a85781836104e1565b503d6104f4565b6040513d6000823e3d90fd5b928697846105358397989994959651866129bf565b0192019201909189969594939261038b565b9091506001600160ff1b0380821682036105b857841684036105b857908891600360005283600080516020612d8983398151915291881b82019186891b015b82811061059457505061036a565b90919293506105a281612976565b6105ad888201612976565b0190838a9392610586565b634e487b7160e01b600052601160045260246000fd5b015190508980610335565b90879350601f1983169186600052600080516020612d698339815191529260005b8d8282106106315750508411610618575b505050811b018255610349565b015160001960f88460031b161c1916905589808061060b565b8385015186558b979095019493840193016105fa565b346102a8576003196060368201126102a8576001600160401b036024358181116102a857610120809382360301126102a857604051928301838110838211176102175760405280600401358281116102a8576106a990600436918401016123eb565b835260248101358281116102a8576106c790600436918401016123eb565b926020918282019485526106dd604482016125c6565b604083015260648101358481116102a8576106fe90600436918401016123eb565b606083015260848101358481116102a85761071f90600436918401016123eb565b608083015260a4810135908482116102a8576101046107789161074b61010094600436918401016123eb565b60a086015261075c60c482016125da565b60c086015261076d60e482016125da565b60e0860152016125da565b9101526044358281116102a8576107939036906004016123eb565b6001936107aa60018060a01b038654163314612d05565b518051908482116102175781906107c68261011e60045461249e565b8490601f83116001146108be576000926108b3575b5050600019600383901b1c191690851b176004555b8051928311610217576108088361016560055461249e565b81601f841160011461084457509282939183926000946108395750501b916000199060031b1c191617600555600080f35b015192508480610185565b919083601f1981166005600052600080516020612d49833981519152946000905b88838310610899575050501061088057505050811b01600555005b015160001960f88460031b161c191690558280806101d9565b858701518855909601959485019487935090810190610865565b0151905086806107db565b90879350601f198316916004600052600080516020612dc98339815191529260005b8882821061091857505084116108ff575b505050811b016004556107f0565b015160001960f88460031b161c191690558680806108f1565b8385015186558b979095019493840193016108e0565b346102a85760603660031901126102a8576004356001600160401b0381116102a85761095e9036906004016123eb565b60249081356001600160401b0381116102a85761097f9036906004016123eb565b906044356001600160401b0381116102a85761099f9036906004016123eb565b60065492600184018085116110e6576006556109bf6103d760045461249e565b60006004556109d26103ee60055461249e565b6000600555604051606081018181106001600160401b03821117611021576040526002815260005b604081106110cf575060405190610a108261235c565b610a18612956565b9081835260208301528051906001600160401b0382116110ba57610a418261031b60025461249e565b602090601f831160011461104157602093929160009183611036575b50508160011b916000199060031b1c1916176002555b0151805190600160401b82116110215760035482600355808310610f92575b506020016003600052600080516020612d898339815191526000915b838310610f745750505050610ae19060405190610aca8261235c565b610ad2612b45565b825260208201526103c3612b65565b60405190610aee8261235c565b604051610afa8161235c565b60098152681a5b5859d957dd5c9b60ba1b60208201528252602082015260035460011015610f5f57600360005280518051906001600160401b038211610f4a57610b52600080516020612da98339815191525461249e565b601f8111610eee575b50602090601f8311600114610e4957602093929160009183610e3e575b50508160011b916000199060031b1c191617600080516020612da9833981519152555b0151928351906001600160401b038211610e2a57507fc2575a0e9e593c00f959f8c92f12db2869c3395a3b0502d05e2516446f71f85e90610bdc825461249e565b601f8111610dd1575b506020601f8211600114610d4557918160209492610cf594600097988892610d3a575b50508160011b9187199060031b1c19161790555b6001546040516001600160a01b0390911691610c3782612377565b8152601584820152604051610c4b816123af565b85815260408201526103e8606082015260156080820152610c6a612bc2565b60a08201528460c0820152604051610c81816123af565b85815260e0820152600a6101008201526065610120820152604051610ca5816123af565b858152610140820152604051610cba816123af565b858152610160820152604051610ccf816123af565b858152610180820152604051948580948193633c38a5f560e01b83528960048401612bed565b03925af1801561051457610d0f575b602082604051908152f35b602090813d8311610d33575b610d2581836123ca565b810103126102a85781610d04565b503d610d1b565b015190508880610c08565b601f19821695836000527f0963032865dc6185d042d812c17bab9629064fe2f748893c63792fcc3d2ebf999660005b818110610db957509260009697610cf59593600193836020999710610da1575b505050811b019055610c1c565b0151881960f88460031b161c19169055888080610d94565b83830151895560019098019760209384019301610d74565b610e1a90836000527f0963032865dc6185d042d812c17bab9629064fe2f748893c63792fcc3d2ebf99601f840160051c81019160208510610e20575b601f0160051c0190612760565b85610be5565b9091508190610e0d565b634e487b7160e01b60009081526041600452fd5b015190508780610b78565b90600080516020612da98339815191526000527f3f8a9ffd58db029f2bac46056dbc53052839d91105f501f2db6ecb9566ee68329160005b601f1985168110610ed6575091839160019360209695601f19811610610ebd575b505050811b01600080516020612da983398151915255610b9b565b015160001960f88460031b161c19169055878080610ea2565b91926020600181928685015181550194019201610e81565b610f4490600080516020612da98339815191526000527f3f8a9ffd58db029f2bac46056dbc53052839d91105f501f2db6ecb9566ee6832601f850160051c81019160208610610e2057601f0160051c0190612760565b86610b5b565b85634e487b7160e01b60005260416004526000fd5b83634e487b7160e01b60005260326004526000fd5b6002602082610f8660019451866129bf565b01920192019190610aae565b6001600160ff1b03818116820361100c5783168303610ff7576003600052600080516020612d898339815191528360011b81015b8260011b82018110610fd9575050610a92565b80610fe5600292612976565b610ff160018201612976565b01610fc6565b87634e487b7160e01b60005260116004526000fd5b88634e487b7160e01b60005260116004526000fd5b86634e487b7160e01b60005260416004526000fd5b015190508980610a5d565b906002600052600080516020612d698339815191529160005b601f19851681106110a2575091839160019360209695601f19811610611089575b505050811b01600255610a73565b015160001960f88460031b161c1916905589808061107b565b9192602060018192868501518155019401920161105a565b87634e487b7160e01b60005260416004526000fd5b6020906110da612901565b828285010152016109fa565b85634e487b7160e01b60005260116004526000fd5b346102a85760003660031901126102a8576001546040516001600160a01b039091168152602090f35b346102a85760603660031901126102a8576001600160401b036024358181116102a8576111559036906004016123eb565b906044358181116102a85761116e9036906004016123eb565b9060019161118660018060a01b038454163314612d05565b83518281116102175761119e8161011e60045461249e565b602094601f82116001146112775794819293949560009261126c575b5050600019600383901b1c191690841b176004555b8051918211610217576111e78261016560055461249e565b602090601f8311600114611219579282939183926000946108395750501b916000199060031b1c191617600555600080f35b90601f19831691600560005283600080516020612d498339815191529360005b878282106112535750501061088057505050811b01600555005b8486015187559095019460209485019487935001611239565b0151905085806111ba565b601f198216956004600052600080516020612dc98339815191529160005b8881106112d1575083879897959697106112b8575b505050811b016004556111cf565b015160001960f88460031b161c191690558580806112aa565b8183015184559287019260209283019201611295565b346102a85760003660031901126102a85760405160006004546113098161249e565b80845290600190818116908115611394575060011461134b575b61134784611333818603826123ca565b6040519182916020835260208301906125a1565b0390f35b600460009081529250600080516020612dc98339815191525b82841061137c57505050810160200161133382611323565b80546020858701810191909152909301928101611364565b60ff191660208087019190915292151560051b850190920192506113339150839050611323565b346102a8576113c936612441565b906006549160018301908184116105b857611458926020926006556113f26103d760045461249e565b60006004556114056103ee60055461249e565b6000600555611446600060018060a01b0360015416926040519687958694859363a252a95160e01b85528b60048601526080602486015260848501906125a1565b838103600319016044850152906125a1565b6003606483015203925af180156105145761147857602082604051908152f35b602090813d8111610d3357610d2581836123ca565b346102a8576020806003193601126102a857604051906114ac8261235c565b6001918281528160005b8181106116fb5750506040516114cb8161235c565b604051600090600291818354916114e18361249e565b92838352888a821691826000146116de575050600114611693575b61150b925097959703826123ca565b825260035461151981612487565b9161152760405193846123ca565b8183528583016003600052600080516020612d898339815191526000915b8483106116565750505050508382015261155e84612cf8565b5261156883612cf8565b506040519180830181845284518091526040840191600581604084831b8801019701936000915b84831061159c5787890388f35b9091929394958098603f1989820301845285885191816115c584516040845260408401906125a1565b9301519082818503910152805180845282840190838082891b87010193019460005b8783821061160a575050505050819250980193019301919493929097959761158f565b91939561164481929496601f198782030189528951908361163483516040845260408401906125a1565b92015190848184039101526125a1565b970195019101918a94959391926115e7565b968389829b996040516116688161235c565b611671866124d8565b815261167e8587016124d8565b83820152815201920192019190989698611545565b5050826000528186600080516020612d69833981519152896000915b8583106116c557505061150b93508201016114fc565b80919294505483858801015201910187908985936116af565b60ff19168482015261150b94151560051b84010191506114fc9050565b611703612901565b8282850101520182906114b6565b346102a85761171f366125eb565b90915060019161173960018060a01b038454163314612d05565b6020809101519182516001600160401b03938482116102175781906117638261011e60045461249e565b8490601f83116001146118375760009261182c575b5050600019600383901b1c191690851b176004555b8051928311610217576117a58361016560055461249e565b81601f84116001146117d657509282939183926000946108395750501b916000199060031b1c191617600555600080f35b919083601f1981166005600052600080516020612d49833981519152946000905b88838310611812575050501061088057505050811b01600555005b8587015188559096019594850194879350908101906117f7565b015190508680611778565b90879350601f198316916004600052600080516020612dc98339815191529260005b888282106118915750508411611878575b505050811b0160045561178d565b015160001960f88460031b161c1916905586808061186a565b8385015186558b97909501949384019301611859565b346102a85760203660031901126102a8576004356001600160a01b03818116918290036102a85760005416330361191157600180546001600160a01b031916821790557f107a9fafffb7ac890f780879e423760c9ffea8dcee8045681f40f542aede2cb8600080a2005b60405162461bcd60e51b815260206004820152601360248201527221b0b63632b91034b9903737ba1037bbb732b960691b6044820152606490fd5b346102a85761195a36612441565b90600654916001908184018085116105b85760065561197761291a565b604051906119848261235c565b602061198e612956565b928381520190815281516001600160401b03811161021757806002936119b88261031b875461249e565b602090601f8311600114611c6157600092611c56575b5050600019600383901b1c191690851b1782555b5190815191600160401b83116102175760035483600355808410611bf3575b506020016003600052600080516020612d898339815191526000915b848310611bd7578860006020610cf58b8b611a3f8c604051906103ad8261235c565b611a4d6103d760045461249e565b84600455611a5f6103ee60055461249e565b6005859055546040516001600160a01b0390911691611a7d82612393565b8152601584820152604051611a91816123af565b85815260408201526103e8606082015260156080820152611ab0612bc2565b60a08201528460c0820152604051611ac7816123af565b85815260e0820152600a6101008201526065610120820152604051611aeb816123af565b858152610140820152604051948580948193631e0fca9360e11b835289600484015260406024840152611b2c815161016060448601526101a48501906125a1565b88820151850b6064850152610140611bac611b8c611b5c60408601519460431995868a83030160848b01526125a1565b63ffffffff60608701511660a48901526080860151890b60c489015260a0860151858983030160e48a01526125a1565b60c085015161010488015260e085015184888303016101248901526125a1565b92610100810151610144870152610120810151610164870152015190848303016101848501526125a1565b83602082611be78a9451866129bf565b01920192019190611a1d565b6001600160ff1b0381811682036105b857841684036105b857600360005282600080516020612d8983398151915291871b82019185881b015b828110611c3a575050611a01565b611c4381612976565b611c4e888201612976565b018390611c2c565b0151905088806119ce565b90879350601f1983169186600052600080516020612d698339815191529260005b818110611cb757508411611c9e575b505050811b0182556119e2565b015160001960f88460031b161c19169055888080611c91565b8284015185558a969094019360209384019301611c82565b346102a85760003660031901126102a8576040516000600554611cf18161249e565b808452906001908181169081156113945750600114611d1a5761134784611333818603826123ca565b600560009081529250600080516020612d498339815191525b828410611d4b57505050810160200161133382611323565b80546020858701810191909152909301928101611d33565b346102a85760603660031901126102a85760248035906001600160401b038083116102a857366023840112156102a857826004013592611da284612487565b92611db060405194856123ca565b84845260209182850182600597881b830101913683116102a857838101915b83831061204857505050506044358381116102a857611df29036906004016123eb565b90600194611e0a60018060a01b038754163314612d05565b85604051611e17816123af565b60008152916000915b611fbe575b5050805190858211611fa9578190611e428261011e60045461249e565b8590601f8311600114611f3957600092611f2e575b5050600019600383901b1c191690861b176004555b8151938411610e2a5750611e8483610165875461249e565b81601f8411600114611ec05750928293918392600094611eb5575b50501b916000199060031b1c1916179055600080f35b015192508580611e9f565b919083601f19811687600052600080516020612d49833981519152946000905b88838310611f145750505010611efb575b505050811b019055005b015160001960f88460031b161c19169055838080611ef1565b858701518855909601959485019487935090810190611ee0565b015190508880611e57565b90889350601f198316916004600052600080516020612dc98339815191529260005b89828210611f935750508411611f7a575b505050811b01600455611e6c565b015160001960f88460031b161c19169055888080611f6c565b8385015186558c97909501949384019301611f5b565b82634e487b7160e01b60005260416004526000fd5b909181518310156120425761201a602187858c1b85010151926040519381611fef86935180928d808701910161257e565b8201612003825180938d808501910161257e565b01600560f91b8a820152038a8101845201826123ca565b91600019811461202d5787019087611e20565b83634e487b7160e01b60005260116004526000fd5b91611e25565b82358781116102a857869161206383928836918701016123eb565b815201920191611dcf565b346102a85761207c36612441565b906006549060018083018084116105b85760065561209861291a565b93604051946120a68661235c565b6120ae612956565b90818752602080970190815281516001600160401b03811161021757806002936120dc8261031b875461249e565b8990601f831160011461224a5760009261223f575b5050600019600383901b1c191690851b1782555b5190815191600160401b8311610217578790600354846003558085106121ce575b5090809594939291016003600052600080516020612d898339815191526000915b8483106121a757878a6000826104cf8d8c6121698d604051906103ad8261235c565b6121776103d760045461249e565b846004556121896103ee60055461249e565b6005859055546040516001600160a01b0390911691610c3782612377565b928697846121bc8397989994959651866129bf565b01920192019091899695949392612147565b9091506001600160ff1b0380821682036105b857841684036105b857908891600360005283600080516020612d8983398151915291881b82019186891b015b82811061221b575050612126565b909192935061222981612976565b612234888201612976565b0190838a939261220d565b0151905089806120f1565b90879350601f1983169186600052600080516020612d698339815191529260005b8d8282106122a25750508411612289575b505050811b018255612105565b015160001960f88460031b161c1916905589808061227c565b8385015186558b9790950194938401930161226b565b346102a8576122c636612441565b906006549160018301908184116105b857612343926020926006556122ef6103d760045461249e565b60006004556123026103ee60055461249e565b6000600555611446600060018060a01b03600154169260405196879586948593634b04236b60e01b85528b60048601526060602486015260648501906125a1565b03925af180156105145761147857602082604051908152f35b604081019081106001600160401b0382111761021757604052565b6101a081019081106001600160401b0382111761021757604052565b61016081019081106001600160401b0382111761021757604052565b602081019081106001600160401b0382111761021757604052565b90601f801991011681019081106001600160401b0382111761021757604052565b81601f820112156102a8578035906001600160401b038211610217576040519261241f601f8401601f1916602001856123ca565b828452602083830101116102a857816000926020809301838601378301015290565b9060406003198301126102a8576001600160401b036004358181116102a8578361246d916004016123eb565b926024359182116102a857612484916004016123eb565b90565b6001600160401b0381116102175760051b60200190565b90600182811c921680156124ce575b60208310146124b857565b634e487b7160e01b600052602260045260246000fd5b91607f16916124ad565b90604051918260008254926124ec8461249e565b90818452600194858116908160001461255b5750600114612518575b5050612516925003836123ca565b565b9093915060005260209081600020936000915b81831061254357505061251693508201013880612508565b8554888401850152948501948794509183019161252b565b91505061251694506020925060ff191682840152151560051b8201013880612508565b60005b8381106125915750506000910152565b8181015183820152602001612581565b906020916125ba8151809281855285808601910161257e565b601f01601f1916010190565b35906001600160401b03821682036102a857565b359063ffffffff821682036102a857565b90600319906060828401126102a85760048035936024356001600160401b03948582116102a8576101609082840301126102a8576040519061262c82612393565b808401358681116102a8578385612645928401016123eb565b825260248101358681116102a8578385612661928401016123eb565b602083015260448101358681116102a8578385612680928401016123eb565b604083015260648101358681116102a857838561269f928401016123eb565b60608301526126b0608482016125c6565b608083015260a48101358681116102a85783856126cf928401016123eb565b60a083015260c48101358681116102a85783856126ee928401016123eb565b60c083015260e48101358681116102a857816127148587610144946127459601016123eb565b60e085015261272661010482016125da565b61010085015261273961012482016125da565b610120850152016125da565b610140820152936044359081116102a85761248492016123eb565b81811061276b575050565b60008155600101612760565b601f81116127825750565b600060048152601f600080516020612dc9833981519152920160051c8201915b8281106127ae57505050565b8181556001016127a2565b601f81116127c45750565b600060058152601f600080516020612d49833981519152920160051c8201915b8281106127f057505050565b8181556001016127e4565b90601f8211612808575050565b612516916002600052600080516020612d69833981519152906020601f840160051c83019310610e2057601f0160051c0190612760565b90601f821161284c575050565b612516916004600052600080516020612dc9833981519152906020601f840160051c83019310610e2057601f0160051c0190612760565b90601f8211612890575050565b612516916005600052600080516020612d49833981519152906020601f840160051c83019310610e2057601f0160051c0190612760565b9190601f81116128d657505050565b612516926000526020600020906020601f840160051c83019310610e2057601f0160051c0190612760565b6040519061290e8261235c565b60606020838281520152565b604051906129278261235c565b600182528160005b6020908181101561295157602091612945612901565b9082850101520161292f565b505050565b604051906129638261235c565b60048252633ab9b2b960e11b6020830152565b612980815461249e565b908161298a575050565b81601f6000931160011461299c575055565b9080839182526129bb601f60208420940160051c840160018501612760565b5555565b815180516001600160401b03918282116102175781906129e9826129e3875461249e565b876128c7565b602090601f8311600114612ae057600092612ad5575b50508160011b916000199060031b1c19161782555b60206001809301930151805191821161021757612a3b82612a35865461249e565b866128c7565b602090601f8311600114612a7557928293918392600094612a6a575b50501b916000199060031b1c1916179055565b015192503880612a57565b90601f198316918560005283826000209360005b87828210612abc57505010612aa3575b505050811b019055565b015160001960f88460031b161c19169055388080612a99565b8486015187559095019460209485019487935001612a89565b0151905038806129ff565b60008681528281209350601f198516905b818110612b2d5750908460019594939210612b14575b505050811b018255612a14565b015160001960f88460031b161c19169055388080612b07565b92936020600181928786015181550195019301612af1565b60405190612b528261235c565b60048252631d195e1d60e21b6020830152565b60035415612b87576003600052600080516020612d8983398151915290600090565b634e487b7160e01b600052603260045260246000fd5b9190612bac57612516916129bf565b634e487b7160e01b600052600060045260246000fd5b60405190612bcf8261235c565b600f82526e7b2274797065223a2274657874227d60881b6020830152565b61248492918152604060208201528151906101c0612c196101a0938460408501526101e08401906125a1565b92602085015160000b6060840152612ce8612c7a612c49604088015196603f1997888883030160808901526125a1565b63ffffffff60608901511660a0870152608088015160000b60c087015260a0880151878783030160e08801526125a1565b60c0870151926101009384870152612cd5612ca660e08a015193610120948a8a830301868b01526125a1565b9489015192610140938489015289015192610160938489015289015194610180958989830301878a01526125a1565b91880151908787840301908701526125a1565b94015192828503019101526125a1565b805115612b875760200190565b15612d0c57565b60405162461bcd60e51b815260206004820152601460248201527343616c6c6572206973206e6f74206f7261636c6560601b6044820152606490fdfe036b6384b5eca791c62761152d0c79bb0604c104a5fb6f4eb0703f3154bb3db0405787fa12a823e0f2b7631cc41b3ba8828b3321ca811111fa75cd3aa3bb5acec2575a0e9e593c00f959f8c92f12db2869c3395a3b0502d05e2516446f71f85bc2575a0e9e593c00f959f8c92f12db2869c3395a3b0502d05e2516446f71f85d8a35acfbc15ff81a39ae7d344fd709f28e8600b4aa8c65c6b64bfe7fe36bd19ba2646970667358221220719672462588c4ceeb889deff003f365a74db87998401146e95f3ae95a7f138264736f6c63430008140033",
  "linkReferences": {},
  "deployedLinkReferences": {}
}