{
  "_format": "hh-sol-artifact-1",
  "contractName": "GroqSimpleLLM",
  "sourceName": "contracts/GroqSimpleLLM.sol",
  "abi": [
    {
      "inputs": [
        {
          "internalType": "address",
          "name": "initialOracleAddress",
          "type": "address"
        }
      ],
      "stateMutability": "nonpayable",
      "type": "constructor"
    },
    {
      "inputs": [
        {
          "internalType": "uint256",
          "name": "",
          "type": "uint256"
        }
      ],
      "name": "getMessageHistory",
      "outputs": [
        {
          "components": [
            {
              "internalType": "string",
              "name": "role",
              "type": "string"
            },
            {
              "components": [
                {
                  "internalType": "string",
                  "name": "contentType",
                  "type": "string"
                },
                {
                  "internalType": "string",
                  "name": "value",
                  "type": "string"
                }
              ],
              "internalType": "struct IOracle.Content[]",
              "name": "content",
              "type": "tuple[]"
            }
          ],
          "internalType": "struct IOracle.Message[]",
          "name": "",
          "type": "tuple[]"
        }
      ],
      "stateMutability": "view",
      "type": "function"
    },
    {
      "inputs": [],
      "name": "message",
      "outputs": [
        {
          "internalType": "string",
          "name": "role",
          "type": "string"
        }
      ],
      "stateMutability": "view",
      "type": "function"
    },
    {
      "inputs": [
        {
          "internalType": "uint256",
          "name": "",
          "type": "uint256"
        },
        {
          "components": [
            {
              "internalType": "string",
              "name": "id",
              "type": "string"
            },
            {
              "internalType": "string",
              "name": "content",
              "type": "string"
            },
            {
              "internalType": "uint64",
              "name": "created",
              "type": "uint64"
            },
            {
              "internalType": "string",
              "name": "model",
              "type": "string"
            },
            {
              "internalType": "string",
              "name": "systemFingerprint",
              "type": "string"
            },
            {
              "internalType": "string",
              "name": "object",
              "type": "string"
            },
            {
              "internalType": "uint32",
              "name": "completionTokens",
              "type": "uint32"
            },
            {
              "internalType": "uint32",
              "name": "promptTokens",
              "type": "uint32"
            },
            {
              "internalType": "uint32",
              "name": "totalTokens",
              "type": "uint32"
            }
          ],
          "internalType": "struct IOracle.GroqResponse",
          "name": "_response",
          "type": "tuple"
        },
        {
          "internalType": "string",
          "name": "_errorMessage",
          "type": "string"
        }
      ],
      "name": "onOracleGroqLlmResponse",
      "outputs": [],
      "stateMutability": "nonpayable",
      "type": "function"
    },
    {
      "inputs": [],
      "name": "response",
      "outputs": [
        {
          "internalType": "string",
          "name": "",
          "type": "string"
        }
      ],
      "stateMutability": "view",
      "type": "function"
    },
    {
      "inputs": [
        {
          "internalType": "string",
          "name": "_message",
          "type": "string"
        }
      ],
      "name": "sendMessage",
      "outputs": [],
      "stateMutability": "nonpayable",
      "type": "function"
    }
  ],
  "bytecode": "0x608034620008f057601f62001dc638819003918201601f19168301916001600160401b03831184841017620004e157808492602094604052833981010312620008f057516001600160a01b03811690819003620008f057600080546001600160a01b03191691909117905560405161016081016001600160401b03811182821017620004e15760405262000092620008f5565b601481527f6c6c616d612d332e312d38622d696e7374616e740000000000000000000000006020820152815260156020820152620000cf62000915565b6000815260408201526103e8606082015260156080820152620000f1620008f5565b600f81526e7b2274797065223a2274657874227d60881b602082015260a0820152600060c08201526200012362000915565b6000815260e0820152600a61010082015260656101208201526200014662000915565b6000815261014082015280518051906001600160401b038211620004e15760045490600182811c92168015620008e5575b6020831014620004c05781601f84931162000873575b50602090601f8311600114620007e457600092620007d8575b50508160011b916000199060031b1c1916176004555b602081015160ff19600554169060ff1617600555604081015180519060018060401b038211620004e15760065490600182811c92168015620007cd575b6020831014620004c05781601f8493116200076c575b50602090601f8311600114620006ee57600092620006e2575b50508160011b916000199060031b1c1916176006555b63ffffffff60608201511660075490608083015160201b64ff00000000169164ffffffffff1916171760075560a081015180519060018060401b038211620004e15760085490600182811c92168015620006d7575b6020831014620004c05781601f84931162000676575b50602090601f8311600114620005f857600092620005ec575b50508160011b916000199060031b1c1916176008555b60c081015160095560e0810151805191906001600160401b038311620004e157600a54600181811c91168015620005e1575b6020821014620004c057601f811162000577575b50602090601f84116001146200050357610140939160009183620004f7575b50508160011b916000199060031b1c191617600a555b610100810151600b55610120810151600c55015180516001600160401b038111620004e157600d54600181811c91168015620004d6575b6020821014620004c057601f811162000456575b50602091601f8211600114620003ec57918192600092620003e0575b50508160011b916000199060031b1c191617600d555b6040516114509081620009368239f35b015190503880620003ba565b601f19821692600d60005260206000209160005b8581106200043d5750836001951062000423575b505050811b01600d55620003d0565b015160001960f88460031b161c1916905538808062000414565b9192602060018192868501518155019401920162000400565b600d6000527fd7b6990105719101dabeb77144f2a3385c8033acd3af97e9423a695e81ad1eb5601f830160051c81019160208410620004b5575b601f0160051c01905b818110620004a857506200039e565b6000815560010162000499565b909150819062000490565b634e487b7160e01b600052602260045260246000fd5b90607f16906200038a565b634e487b7160e01b600052604160045260246000fd5b0151905038806200033d565b90600a60005260206000209160005b601f19861681106200055e575091849160019361014096601f1981161062000544575b505050811b01600a5562000353565b015160001960f88460031b161c1916905538808062000535565b9192602060018192868501518155019401920162000512565b600a6000527fc65a7bb8d6351c1cf70c95a316cc6a92839c986682d98bc35f958f4883f9d2a8601f850160051c81019160208610620005d6575b601f0160051c01905b818110620005c957506200031e565b60008155600101620005ba565b9091508190620005b1565b90607f16906200030a565b015190503880620002c2565b60086000908152935060008051602062001d8683398151915291905b601f19841685106200065a576001945083601f1981161062000640575b505050811b01600855620002d8565b015160001960f88460031b161c1916905538808062000631565b8181015183556020948501946001909301929091019062000614565b600860005290915060008051602062001d86833981519152601f840160051c810160208510620006cf575b90849392915b601f830160051c82018110620006bf575050620002a9565b60008155859450600101620006a7565b5080620006a1565b91607f169162000293565b01519050388062000228565b60066000908152935060008051602062001da683398151915291905b601f198416851062000750576001945083601f1981161062000736575b505050811b016006556200023e565b015160001960f88460031b161c1916905538808062000727565b818101518355602094850194600190930192909101906200070a565b600660005290915060008051602062001da6833981519152601f840160051c810160208510620007c5575b90849392915b601f830160051c82018110620007b55750506200020f565b600081558594506001016200079d565b508062000797565b91607f1691620001f9565b015190503880620001a6565b6004600090815293507f8a35acfbc15ff81a39ae7d344fd709f28e8600b4aa8c65c6b64bfe7fe36bd19b91905b601f198416851062000857576001945083601f198116106200083d575b505050811b01600455620001bc565b015160001960f88460031b161c191690553880806200082e565b8181015183556020948501946001909301929091019062000811565b60046000529091507f8a35acfbc15ff81a39ae7d344fd709f28e8600b4aa8c65c6b64bfe7fe36bd19b601f840160051c810160208510620008dd575b90849392915b601f830160051c82018110620008cd5750506200018d565b60008155859450600101620008b5565b5080620008af565b91607f169162000177565b600080fd5b60408051919082016001600160401b03811183821017620004e157604052565b60405190602082016001600160401b03811183821017620004e15760405256fe6080604052600436101561001257600080fd5b6000803560e01c8063469c81101461075857806354a470fc1461051e5780637a7f01a71461045f578063cc060137146100995763e21f37ce1461005457600080fd5b3461009657806003193601126100965761009260405161007e8161007781611214565b038261111c565b60405191829160208352602083019061119a565b0390f35b80fd5b5034610096576003199060603683011261009657602480359067ffffffffffffffff9081831161045b576101208095843603011261045b576040519485018581108382111761044857604052826004013582811161044057610101906004369186010161113e565b8552808301358281116104405761011e906004369186010161113e565b9460209384820196875260448101358481168103610444576040830152606481013584811161044457610157906004369184010161113e565b6060830152608481013584811161044457610178906004369184010161113e565b608083015260a481013584811161044457610104610100926101a36101d0936004369184010161113e565b60a08601526101b460c4820161134d565b60c08601526101c560e4820161134d565b60e08601520161134d565b910152604435828111610440576101eb90369060040161113e565b84549095906001600160a01b031633036104055785511561032557508451918211610313575060039161021e83546111da565b601f81116102ce575b5080601f83116001146102615750839482939492610256575b50508160011b9160001990841b1c191617905580f35b015190503880610240565b838552601f198316956000805160206113fb833981519152929186905b8882106102b65750508360019596971061029e575b505050811b01905580f35b015160001983861b60f8161c19169055388080610293565b8060018596829496860151815501950193019061027e565b610303908486526000805160206113fb833981519152601f850160051c810191848610610309575b601f0160051c019061135e565b38610227565b90915081906102f6565b634e487b7160e01b8452604160045283fd5b518051909550918211610313575060039161034083546111da565b601f81116103cb575b5080601f831160011461037757508394829394926102565750508160011b9160001990841b1c191617905580f35b838552601f198316956000805160206113fb833981519152929186905b8882106103b35750508360019596971061029e57505050811b01905580f35b80600185968294968601518155019501930190610394565b6103ff908486526000805160206113fb833981519152601f850160051c81019184861061030957601f0160051c019061135e565b38610349565b60405162461bcd60e51b8152600481018590526014818401527343616c6c6572206973206e6f74206f7261636c6560601b6044820152606490fd5b8480fd5b8680fd5b50634e487b7160e01b8452604160045283fd5b8380fd5b50346100965780600319360112610096576040519080600354610481816111da565b808552916001918083169081156104f457506001146104ab575b6100928561007e8187038261111c565b9250600383526000805160206113fb8339815191525b8284106104dc57505050810160200161007e8261009261049b565b805460208587018101919091529093019281016104c1565b8695506100929693506020925061007e94915060ff191682840152151560051b820101929361049b565b503461009657602090816003193601126100965760405161053e816110ea565b60019283825280835b8181106107425750506040519061055d826110ea565b60405161056d8161007781611214565b8252600291825467ffffffffffffffff811161072e579285918793946040519060059361059e8883871b018461111c565b818352808652857f405787fa12a823e0f2b7631cc41b3ba8828b3321ca811111fa75cd3aa3bb5ace8985015b8483106106d9575050505050858201526105e3866113d7565b526105ed856113d7565b50604051938085019181865286518093526040860182604085841b89010198019480925b85841061061e57888a0389f35b909192939495968099603f198a82030185528689519181610648845160408452604084019061119a565b9301519082818503910152805180845282840190838082891b870101930194885b8783821061068d575050505050819250990194019401929594939190989698610611565b9193956106c781929496601f19878203018952895190836106b7835160408452604084019061119a565b920151908481840391015261119a565b970195019101918b9495939192610669565b98838b829d9b60409d9a9b9d516106ef816110ea565b60405161070081610077818a6112b7565b81526040516107158161007781898b016112b7565b838201528152019201920191909a989a999796996105ca565b634e487b7160e01b86526041600452602486fd5b61074a6113be565b828286010152018190610547565b50346100965760203660031901126100965760043567ffffffffffffffff81116110e65761078a90369060040161113e565b90604051610797816110ea565b60048152633ab9b2b960e11b60208201526107b06113be565b50604051926107be846110ea565b60018452825b602081106110cf5750604051916107da836110ea565b82526107ec60208301948086526113d7565b51604051906107fa826110ea565b60048252631d195e1d60e21b602083015252602061081885516113d7565b5101525191825167ffffffffffffffff8111610fe1576108396001546111da565b601f8111611081575b506020601f821160011461100057839482939492610ff5575b50508160011b916000199060031b1c1916176001555b51805190680100000000000000008211610fe15760025482600255808310610f43575b50602001600283527f405787fa12a823e0f2b7631cc41b3ba8828b3321ca811111fa75cd3aa3bb5ace83915b838310610cf7578460018060a01b0381541660405190631e0fca9360e11b8252826004830152604060248301526101606044830152818380600454610904816111da565b90816101a4860152600181169081600014610cda5750600114610c7e575b50600554820b6064840152604319838203810160848501526006548392610948826111da565b8082529160018116908115610c5d5750600114610bfd575b505060075463ffffffff811660a486015260201c830b60c4850152838203810160e48501526008548392610993826111da565b8082529160018116908115610bdc5750600114610b7c575b50506009546101048501528382038101610124850152600a5483926109cf826111da565b8082529160018116908115610b5b5750600114610afb575b5050600b54610144850152600c5461016485015283820301610184840152600d548291610a13826111da565b8082529160018116908115610ad75750600114610a79575b50506020939183809203925af18015610a6e57610a46575080f35b602090813d8311610a67575b610a5c818361111c565b810103126100965780f35b503d610a52565b6040513d84823e3d90fd5b600d8452839250907fd7b6990105719101dabeb77144f2a3385c8033acd3af97e9423a695e81ad1eb55b818410610ab7575050016020018183610a2b565b600191955060209294508054838587010152019101909185938793610aa3565b60ff191660208381019190915292151560051b909101909101915082905083610a2b565b600a85529192508391907fc65a7bb8d6351c1cf70c95a316cc6a92839c986682d98bc35f958f4883f9d2a85b818410610b3c575050016020019087806109e7565b805460208486018101919091528997508a965090930192600101610b27565b9050602093945060ff929192191683830152151560051b01019087806109e7565b600885529192508391907ff3f7a9fe364faab93b216da50a3214154f22a0a2b415b23a84c8169e8b636ee35b818410610bbd575050016020019087806109ab565b805460208486018101919091528997508a965090930192600101610ba8565b9050602093945060ff929192191683830152151560051b01019087806109ab565b600685529192508391907ff652222313e28459528d920b65115c16c04f3efc82aaedc97be59f3f377c0d3f5b818410610c3e57505001602001908780610960565b805460208486018101919091528997508a965090930192600101610c29565b9050602093945060ff929192191683830152151560051b0101908780610960565b600483528291507f8a35acfbc15ff81a39ae7d344fd709f28e8600b4aa8c65c6b64bfe7fe36bd19b5b818310610cbc57505082016101c40186610922565b80546101c48489010152869450879350602090920191600101610ca7565b9250506101c49160ff191682850152151560051b83010186610922565b8051805180519067ffffffffffffffff8211610f2f57610d1785546111da565b601f8111610eff575b50602090601f8311600114610e98576020939291899183610e8d575b50508160011b916000199060031b1c19161784555b015180519067ffffffffffffffff8211610e7957610d7260018501546111da565b601f8111610e3b575b50602090601f8311600114610dc95792826002936020936001968b92610dbe575b5050600019600383901b1c191690851b17858501555b019201920191906108c0565b015190503880610d9c565b906001850188526020882091885b601f1985168110610e23575083602093600196938793600297601f19811610610e0a575b505050811b0184860155610db2565b015160001960f88460031b161c19169055388080610dfb565b91926020600181928685015181550194019201610dd7565b610e6990600186018952602089206005601f8601811c82019260208710610e6f575b601f01901c019061135e565b38610d7b565b9192508291610e5d565b634e487b7160e01b87526041600452602487fd5b015190503880610d3c565b858952602089209190601f1984168a5b818110610ee75750916001939185602097969410610ece575b505050811b018455610d51565b015160001960f88460031b161c19169055388080610ec1565b92936020600181928786015181550195019301610ea8565b610f2990868a5260208a206005601f8601811c82019260208710610e6f57601f01901c019061135e565b38610d20565b634e487b7160e01b88526041600452602488fd5b6001600160ff1b038181168203610fcd5783168303610fb957600284527f405787fa12a823e0f2b7631cc41b3ba8828b3321ca811111fa75cd3aa3bb5ace9060011b8101908360011b015b818110610f9b5750610894565b80610fa7600292611375565b610fb360018201611375565b01610f8e565b634e487b7160e01b84526011600452602484fd5b634e487b7160e01b85526011600452602485fd5b634e487b7160e01b83526041600452602483fd5b01519050388061085b565b600184527fb10e2d527612073b26eecdfd717e6a320cf44b4afac2b0732d9fcbe2b7fa0cf690601f198316855b81811061106957509583600195969710611050575b505050811b01600155610871565b015160001960f88460031b161c19169055388080611042565b9192602060018192868b01518155019401920161102d565b6110c990600185527fb10e2d527612073b26eecdfd717e6a320cf44b4afac2b0732d9fcbe2b7fa0cf6601f840160051c8101916020851061030957601f0160051c019061135e565b38610842565b6020906110da6113be565b828288010152016107c4565b5080fd5b6040810190811067ffffffffffffffff82111761110657604052565b634e487b7160e01b600052604160045260246000fd5b90601f8019910116810190811067ffffffffffffffff82111761110657604052565b81601f820112156111955780359067ffffffffffffffff82116111065760405192611173601f8401601f19166020018561111c565b8284526020838301011161119557816000926020809301838601378301015290565b600080fd5b919082519283825260005b8481106111c6575050826000602080949584010152601f8019910116010190565b6020818301810151848301820152016111a5565b90600182811c9216801561120a575b60208310146111f457565b634e487b7160e01b600052602260045260246000fd5b91607f16916111e9565b90600091600190815491611227836111da565b8083529281811690811561129a575060011461124257505050565b80929394506000527fb10e2d527612073b26eecdfd717e6a320cf44b4afac2b0732d9fcbe2b7fa0cf6916000925b84841061128257505060209250010190565b80546020858501810191909152909301928101611270565b915050602093945060ff929192191683830152151560051b010190565b90600092918054916112c8836111da565b91828252600193848116908160001461132a57506001146112ea575b50505050565b90919394506000526020928360002092846000945b8386106113165750505050010190388080806112e4565b8054858701830152940193859082016112ff565b9294505050602093945060ff191683830152151560051b010190388080806112e4565b359063ffffffff8216820361119557565b818110611369575050565b6000815560010161135e565b61137f81546111da565b9081611389575050565b81601f6000931160011461139b575055565b9080839182526113ba601f60208420940160051c84016001850161135e565b5555565b604051906113cb826110ea565b60606020838281520152565b8051156113e45760200190565b634e487b7160e01b600052603260045260246000fdfec2575a0e9e593c00f959f8c92f12db2869c3395a3b0502d05e2516446f71f85ba2646970667358221220aa439368d52722b041cb4322ec68a647c10ada29dc0d6c8732598a999506af2664736f6c63430008140033f3f7a9fe364faab93b216da50a3214154f22a0a2b415b23a84c8169e8b636ee3f652222313e28459528d920b65115c16c04f3efc82aaedc97be59f3f377c0d3f",
  "linkReferences": {},
  "deployedLinkReferences": {}
}